{
  "_format": "hh-sol-artifact-1",
  "contractName": "AirdropDistributor",
  "sourceName": "contracts/AirdropDistributor.sol",
  "abi": [
    {
      "inputs": [],
      "stateMutability": "nonpayable",
      "type": "constructor"
    },
    {
      "anonymous": false,
      "inputs": [
        {
          "indexed": true,
          "internalType": "address",
          "name": "_wallet",
          "type": "address"
        },
        {
          "indexed": false,
          "internalType": "uint256",
          "name": "_amount",
          "type": "uint256"
        },
        {
          "indexed": false,
          "internalType": "address",
          "name": "_tokenId",
          "type": "address"
        }
      ],
      "name": "Airdrop",
      "type": "event"
    },
    {
      "inputs": [
        {
          "internalType": "address",
          "name": "_erc20TokenAddress",
          "type": "address"
        },
        {
          "internalType": "address[]",
          "name": "_wallets",
          "type": "address[]"
        },
        {
          "internalType": "uint256[]",
          "name": "_amounts",
          "type": "uint256[]"
        }
      ],
      "name": "distributeTokens",
      "outputs": [],
      "stateMutability": "nonpayable",
      "type": "function"
    }
  ],
  "bytecode": "0x608060405234801561001057600080fd5b50610718806100206000396000f3fe608060405234801561001057600080fd5b506004361061002b5760003560e01c806351b6fe9614610030575b600080fd5b6101676004803603606081101561004657600080fd5b6001600160a01b03823516919081019060408101602082013564010000000081111561007157600080fd5b82018360208201111561008357600080fd5b803590602001918460208302840111640100000000831117156100a557600080fd5b91908080602002602001604051908101604052809392919081815260200183836020028082843760009201919091525092959493602081019350359150506401000000008111156100f557600080fd5b82018360208201111561010757600080fd5b8035906020019184602083028401116401000000008311171561012957600080fd5b919080806020026020016040519081016040528093929190818152602001838360200280828437600092019190915250929550610169945050505050565b005b8151815181146101aa5760405162461bcd60e51b81526004018080602001828103825260238152602001806106966023913960400191505060405180910390fd5b6000805b828110156101db578381815181106101c257fe5b60200260200101518201915080806001019150506101ae565b50604080516370a0823160e01b8152336004820152905186916001600160a01b038316916370a0823191602480820192602092909190829003018186803b15801561022557600080fd5b505afa158015610239573d6000803e3d6000fd5b505050506040513d602081101561024f57600080fd5b505182111561029c576040805162461bcd60e51b8152602060048201526014602482015273496e73756666696369656e742062616c616e636560601b604482015290519081900360640190fd5b60005b838110156103325760008682815181106102b557fe5b6020026020010151905060008683815181106102cd57fe5b602002602001015190506102e38433848461033b565b604080518281526001600160a01b038b811660208301528251908516927f3d828f178733140fb31c759137c00cf4cf51b2c6b7a7397a5f0208e4f28ab7c2928290030190a2505060010161029f565b50505050505050565b604080516001600160a01b0380861660248301528416604482015260648082018490528251808303909101815260849091019091526020810180516001600160e01b03166323b872dd60e01b17905261039590859061039b565b50505050565b60006103f0826040518060400160405280602081526020017f5361666545524332303a206c6f772d6c6576656c2063616c6c206661696c6564815250856001600160a01b03166104519092919063ffffffff16565b80519091501561044c5780806020019051602081101561040f57600080fd5b505161044c5760405162461bcd60e51b815260040180806020018281038252602a8152602001806106b9602a913960400191505060405180910390fd5b505050565b6060610460848460008561046a565b90505b9392505050565b6060824710156104ab5760405162461bcd60e51b81526004018080602001828103825260268152602001806106706026913960400191505060405180910390fd5b6104b4856105c5565b610505576040805162461bcd60e51b815260206004820152601d60248201527f416464726573733a2063616c6c20746f206e6f6e2d636f6e7472616374000000604482015290519081900360640190fd5b600080866001600160a01b031685876040518082805190602001908083835b602083106105435780518252601f199092019160209182019101610524565b6001836020036101000a03801982511681845116808217855250505050505090500191505060006040518083038185875af1925050503d80600081146105a5576040519150601f19603f3d011682016040523d82523d6000602084013e6105aa565b606091505b50915091506105ba8282866105cb565b979650505050505050565b3b151590565b606083156105da575081610463565b8251156105ea5782518084602001fd5b8160405162461bcd60e51b81526004018080602001828103825283818151815260200191508051906020019080838360005b8381101561063457818101518382015260200161061c565b50505050905090810190601f1680156106615780820380516001836020036101000a031916815260200191505b509250505060405180910390fdfe416464726573733a20696e73756666696369656e742062616c616e636520666f722063616c6c57616c6c65747320616e6420616d6f756e7473206c656e677468206d69736d617463685361666545524332303a204552433230206f7065726174696f6e20646964206e6f742073756363656564a264697066735822122012b59dbe3f11334540b2480c8a81fe7f66e30824dfcc3d0a7a84db25e1e4fc6e64736f6c63430007060033",
  "linkReferences": {},
  "deployedLinkReferences": {}
}